:100000000EC015C014C013C012C011C010C00FC064
:100010000EC00DC00CC00BC00AC009C008C011241E
:100020001FBECFE5D2E0DEBFCDBF02D02BC0E8CFF0
:10003000B89A8FEF89BF86B38C7096B3907311F422
:1000400091E10BC0903111F492E107C0903211F4AC
:1000500093E103C0903311F494E190BF811103C088
:1000600081E08EBD0EC0843019F48FE38EBD09C0CF
:10007000883019F480E88EBD04C08C3011F48EEF06
:080080008EBDFFCFF894FFCF05
:00000001FF
